:1000000045C0000060C000005EC000005CC0000091
:100010005AC0000058C0000056C0000054C0000084
:1000200052C0000050C000004EC000004CC0000094
:100030004AC00000C5C0000046C0000044C0000027
:1000400042C0000040C000003EC000003CC00000B4
:100050003AC0000038C0000036C0000034C00000C4
:1000600032C0000030C000002EC000002CC00000D4
:100070002AC0000028C0000026C0000024C00000E4
:1000800022C0000020C000001EC0000011241FBEBE
:10009000CFEFD0E4DEBFCDBF14E0A0E0B1E0E0E7F9
:1000A000FBE000E00BBF02C007900D92A237B10742
:1000B000D9F724E0A2E7B4E001C01D92AF37B20740
:1000C000E1F7C0D353C59CCF181619065CF008950C
:1000D000000021503109E1F74F5F5F4F841795070A
:1000E00019F4089540E050E027E033E0F1CF5E9846
:1000F00088B95F9A00005F9882E090E0E5CF0895AC
:1001000081E0F5CF0895813118F48158F0CF08953A
:100110008155EDCF089584E690E0D6DF88E3E7DFF0
:1001200086E0E5DF8FE0E3DF81E0E1DF8AE090E079
:10013000CBCF08955E9A88B95F9A00005F9881E0FE
:1001400090E0C2CF08950F931F93CF93DF93182FA2
:10015000EB01D6DF8881882351F001E0010F812F68
:10016000D2DF8991E7DF102F88818111F6CFDF91EF
:10017000CF911F910F9108958BE0809381008DE7BF
:1001800090E0909389008093880082E080936F00D4
:1001900010928500109284008091000190910101DD
:1001A000A0910201B09103018093790490937A04A5
:1001B000A0937B04B0937C048FB780688FBF0895B1
:1001C0001F920F920FB60F9211248F939F93AF93AC
:1001D000BF938091790490917A04A0917B04B091AF
:1001E0007C040197A109B1098093790490937A0462
:1001F000A0937B04B0937C04892B8A2B8B2B99F4DE
:1002000081E080937D048091000190910101A09193
:100210000201B09103018093790490937A04A09332
:100220007B04B0937C04BF91AF919F918F910F900D
:100230000FBE0F901F9018956093000170930101FD
:1002400080930201909303016093790470937A0480
:1002500080937B0490937C040895CF92DF92EF9279
:10026000FF926B017C019B01AC0160917204709163
:1002700073048091740490917504FFD2882309F46B
:1002800052C020E030E0A901C701B601F6D28111C9
:1002900006C0E1E9F0E080818870808305C0E1E973
:1002A000F0E080818360808328E539E344E75FE301
:1002B000C701B601E2D288233CF48FEF9FEF909301
:1002C00099008093980023C020E034E244EF56E484
:1002D000C701B601E4D318162CF4109299001092BD
:1002E000980015C020E030E040E053E4C701B601BB
:1002F000DAD39B01AC0160E074E284EF9AE4C1D2EE
:1003000028D36150710970939900609398001092FE
:10031000950010929400C0927204D0927304E092FF
:100320007404F0927504FF90EF90DF90CF900895E1
:1003300080E4809390008BE08093910060E070E017
:10034000CB018BCF08950F931F93CF93DF93CDB73E
:10035000DEB7C857D1400FB6F894DEBF0FBECDBF91
:100360008CEBE4E0F1E0DE01119601900D928A95AC
:10037000E1F78CEBE0ECF1E0DE01A354BF4F01901C
:100380000D928A95E1F71092770480E002E011E087
:1003900090917604911130C0E1E0F0E0EC0FFD1F88
:1003A00094E0899FE00DF11D1124608171818281AB
:1003B000938153DF80917704EDEBF0E0EC0FFD1FAC
:1003C00094E0899FE00DF11D11246081718182818B
:1003D0009381C4D231DF80917D048823E1F31092B0
:1003E0007D048091770480FD02C015B901C005B974
:1003F00060E070E0CB0131DF80B1809580937804BC
:10040000813051F480917604811103C010937604F9
:1004100007C01092760420C080917604813079F470
:1004200060E070E0CB0119DF809177048150809308
:10043000770480917D048823E1F310927D048091FC
:100440007804823029F460E070E0CB0106DF0CC054
:10045000883051F0803141F0809177048F5F809334
:1004600077048F3208F494CFC858DE4F0FB6F89453
:10047000DEBF0FBECDBFDF91CF911F910F910895C9
:100480000F931F93CF93DF93CDB7DEB7C05CD10935
:100490000FB6F894DEBF0FBECDBF80E6ECE7F2E00A
:1004A000DE01119601900D928A95E1F780E6ECED60
:1004B000F2E0DE01AF59BF4F01900D928A95E1F74E
:1004C0001092770480E002E011E09091760491119F
:1004D00030C0E1E0F0E0EC0FFD1F94E0899FE00DFB
:1004E000F11D11246081718182819381B6DE80913A
:1004F0007704E1E6F0E0EC0FFD1F94E0899FE00D4A
:10050000F11D1124608171818281938127D294DE53
:1005100080917D048823E1F310927D04809177041B
:1005200080FD02C015B901C005B960E070E0CB01E3
:1005300094DE80B1809580937804813061F480915D
:100540007604811103C01093760409C010927604DA
:100550008091770420C080917604813079F460E046
:1005600070E0CB017ADE809177048150809377042C
:1005700080917D048823E1F310927D0480917704BB
:10058000823048F090917804923029F460E070E075
:10059000CB0163DE0CC090917804983041F090312B
:1005A00031F08F5F80937704883108F48ECFC05488
:1005B000DF4F0FB6F894DEBF0FBECDBFDF91CF91F6
:1005C0001F910F9108950F931F93CF93DF93CDB792
:1005D000DEB7C85CD1090FB6F894DEBF0FBECDBF41
:1005E00084E6ECE3F3E0DE01119601900D928A952A
:1005F000E1F784E6E0EAF3E0DE01AB59BF4F01909A
:100600000D928A95E1F71092770480E002E011E004
:1006100090917604911130C0E1E0F0E0EC0FFD1F05
:1006200094E0899FE00DF11D112460817181828128
:10063000938113DE80917704E5E6F0E0EC0FFD1F77
:1006400094E0899FE00DF11D112460817181828108
:10065000938184D1F1DD80917D048823E1F31092B0
:100660007D048091770480FD02C015B901C005B9F1
:1006700060E070E0CB01F1DD80B18095809378047B
:10068000813051F480917604811103C01093760477
:1006900007C01092760420C080917604813079F4EE
:1006A00060E070E0CB01D9DD8091770481508093C8
:1006B000770480917D048823E1F310927D0480917A
:1006C0007804823029F460E070E0CB01C6DD0CC014
:1006D000883051F0803141F0809177048F5F8093B2
:1006E0007704893108F494CFC853DF4F0FB6F894DC
:1006F000DEBF0FBECDBFDF91CF911F910F91089547
:1007000090B190959093780480917E048230A9F006
:1007100028F4882341F0813051F02DC08330F9F066
:10072000873060F128C081E080937E0437C0992330
:10073000A9F182E080937E0436C0913021F484E0F8
:1007400080937E043AC0923021F485E080937E0449
:100750004BC0903141F583E080937E0429C09830EE
:1007600021F482E080937E041EC0943009F586E077
:1007700080937E0450C010927E0408958330C1F0AF
:1007800030F4813059F0823009F05BC00CC0853004
:1007900059F198F0863009F43EC0089564E074E0A1
:1007A00081E0D1CC089565E274E081E0CCCC08957D
:1007B00063E474E081E0C7CC089564E574E081E00F
:1007C000C2DCC1DD80917804883021F486E080931A
:1007D0007E040895803121F485E080937E0408959D
:1007E00081E080937E04089563E674E081E0ABDCF1
:1007F00047DE80917804883021F484E080937E0481
:100800000895803121F486E080937E04089581E08C
:1008100080937E04089563E474E081E094DCD3DE89
:1008200080917804883021F485E080937E040895D7
:10083000803121F484E080937E04089581E08093E8
:100840007E04089511B88FEF82B984B915B887B9BD
:1008500018B88AB91BB85FDC6AEF70E080E090E0FE
:10086000EBDC8ADC65DD10927E044ADF80917D043A
:100870008823E1F310927D04F8CF9CD008F481E046
:1008800008950CD0D2C0CAD040F0C1D030F021F4CD
:100890005F3F19F0B3C05111FCC0B6C0D7D098F378
:1008A0009923C9F35523B1F3951B550BBB27AA27F1
:1008B00062177307840738F09F5F5F4F220F331F63
:1008C000441FAA1FA9F333D00E2E3AF0E0E830D02F
:1008D00091505040E695001CCAF729D0FE2F27D032
:1008E000660F771F881FBB1F261737074807AB0700
:1008F000B0E809F0BB0B802DBF01FF2793585F4F75
:100900002AF09E3F510568F079C0C3C05F3FECF309
:10091000983EDCF3869577956795B795F7959F5F39
:10092000C9F7880F911D9695879597F90895E1E08D
:10093000660F771F881FBB1F621773078407BA07EC
:1009400020F0621B730B840BBA0BEE1F88F7E09547
:10095000089504D06894B1119CC008957FD088F0A8
:100960009F5790F0B92F9927B751A0F0D1F0660F9B
:10097000771F881F991F1AF0BA95C9F712C0B130B6
:1009800081F086D0B1E0089583C0672F782F882743
:10099000B85F39F0B93FCCF3869577956795B395F5
:1009A000D9F73EF490958095709561957F4F8F4F64
:1009B0009F4F0895990F0008550FAA0BE0E8FEEF2E
:1009C00016161706E807F907C0F012161306E40713
:1009D000F50798F0621B730B840B950B39F40A260C
:1009E00061F0232B242B252B21F408950A2609F4EA
:1009F000A140A6958FEF811D811D089597F99F67EE
:100A000080E870E060E008959FEF80EC0895002496
:100A10000A941616170618060906089500240A9463
:100A200012161306140605060895092E0394000CE9
:100A300011F4882352F0BB0F40F4BF2B11F460FF78
:100A400004C06F5F7F4F8F4F9F4F089557FD9058A1
:100A5000440F551F59F05F3F71F04795880F97FB82
:100A6000991F61F09F3F79F087950895121613063C
:100A70001406551FF2CF4695F1DF08C0161617066B
:100A80001806991FF1CF86957105610508940895A0
:100A9000E894BB2766277727CB0197F908958ADF6B
:100AA00008F48FEF08950BD0C0CFB1DF28F0B6DF88
:100AB00018F0952309F0A2CFA7CF1124EACFC6DF03
:100AC000A0F3959FD1F3950F50E0551F629FF00161
:100AD000729FBB27F00DB11D639FAA27F00DB11DBA
:100AE000AA1F649F6627B00DA11D661F829F222743
:100AF000B00DA11D621F739FB00DA11D621F839FCA
:100B0000A00D611D221F749F3327A00D611D231F9F
:100B1000849F600D211D822F762F6A2F11249F57ED
:100B200050408AF0E1F088234AF0EE0FFF1FBB1F10
:100B3000661F771F881F91505040A9F79E3F5105AF
:100B400070F05CCFA6CF5F3FECF3983EDCF3869568
:100B500077956795B795F795E7959F5FC1F7FE2B5A
:100B6000880F911D9695879597F90895F894FFCF72
:100B700001000000A4D0A443A4D0A443A4D0A44363
:100B8000A4D0A443A4D0A443A4D0A443A4D0A443F9
:100B90000000C443A4D082437BD49243A4D0A44396
:100BA000719DAE43719DAE43719DAE43719DAE4349
:100BB000719DAE43A4D0A443A4D0A443A4D0A44325
:100BC0007BD492437BD49243A4D0A4437BD492435E
:100BD0000000C443A4D0A443A4D0A443A4D0A443FD
:100BE000A4D0A443A4D0A443A4D0A443A4D0A44399
:100BF0000000C443A4D082437BD49243A4D0A44336
:100C0000719DAE43719DAE43719DAE43719DAE43E8
:100C1000719DAE43A4D0A443A4D0A4430000C44318
:100C20000000C443719DAE437BD49243A4D0824361
:100C300000009643000096430000C843000096431E
:100C4000000096430000C84300009643000096430E
:100C5000000096430000964300002F440000964396
:100C600000009643000096430000164300009643A0
:100C7000000096430000C84300001643000096435E
:100C80000000964300009643000016440000E14334
:100C900000009643000096430000C84300009643BE
:100CA000000096430000C8430000964300009643AE
:100CB000000096430000964300001644000096434F
:100CC0000000964300009643000016430000964340
:100CD000000096430000C84300009643000096437E
:100CE000000096430000964300002F44A4D0A44384
:100CF000A4D0A443A4D0A443A4D08243A4D0A443AA
:100D00000000C4430000C842A4D082430000444312
:100D10005CCF24430000DC43A4F0F6437B14E9439A
:100D20000000DC430000C443A4D0A4430000C4433B
:100D30000000DC43719DAE430000C443A4D0A44333
:100D4000A4D082437BD49243A4F0764300007A433C
:100D500000007A430000964300007A430000964367
:100D60000000FA43000016440000FA430000FA4372
:100D70000000FA430000C843000096430000964379
:100D8000000096430000C8430000964300009643CD
:100D900000008C430000964300008C430000AF43EA
:100DA0000000824300007A43008009440000C443ED
:100DB0000000C4430000DC430000C44300D00244F0
:100DC000A4F0F6430000C4430000C4430000DC4329
:100DD0000000C4431FD5124400D002440000C443A5
:100DE0000000C4435CFF434400D0244400D00244CC
:100DF000A4F0F6430000DC43719D2E44719D2E4407
:100E000000D0244400D002441FD5124400D0024434
:100E1000000048430000484300009643000096430A
:100E2000000096430000C8430000484300004843C8
:100E30000000964300009643000096430000C8431C
:100E400000004843000048430000964300009643DA
:100E5000000096430000964300009643000048437C
:100E6000000048430000964300009643000096436C
:100E70000000C843202020204A554B45424F5820AF
:100E800020202020507265737320616E7920627576
:100E900074746F6E0031204A696E676C652042651C
:100EA0006C6C73202032204D6172696F205468652C
:100EB0006D650033204861707079204269727468F2
:100EC0006461790031204A696E676C652042656C07
:100ED0006C73003220204D6172696F205468656D1B
:020EE0006500AB
:00000001FF
